:08000000803102288731F12F45
:10089600FE0012001E00FE0B4C2C00342400161421
:1008A6001618562C572C532C08002400161516190A
:1008B6005D2C5E2C5A2C08003F3406345B344F34D2
:1008C60066346D347D3407347F346F340034F00081
:1008D6007008240091001418712C722C6E2C161BB3
:1008E600752C762C722C08000330890B782C0000AE
:1008F60021009D149D18802C812C7D2C1C08F10054
:100906001B08F000080019303D00A1001830A200B5
:1009160011303C00A1001230A00021008E140E15EB
:1009260023008E100E1125008E140E158030240023
:10093600940028309500093092000800220097178D
:100946001708FC3902389700171FAA2CAB2CA72CC6
:1009560021000E1624000E1227000E1225000E127C
:1009660023000E1621001D08033950389D00033060
:100976009E041E119E171E088F3940389E001D14B6
:100986000800843151248431E03084316A24843172
:10099600213084316A24843184315824843184316D
:1009A60051248431E03084316A24843181308431A9
:1009B6006A24843184315824843184315124843129
:1009C600E03084316A248431EF3084316A24843102
:1009D60084315824843108000030FB000030FA00CE
:1009E6000030F9000030F800701CFA2CFB2C032DA7
:1009F6007408F8077508F93D7608FA3D7708FB3D57
:100A06000130F435F50DF60DF70D890B042D013087
:100A1600F336F20CF10CF00C890B0B2D73087204F3
:100A260071047004031D182D192DF72C7B08F30093
:100A36007A08F2007908F1007808F000080084319D
:100A460051248531E03084316A2485310030843187
:100A56006A248531FF3084316A248531003084313F
:100A66006A248531FF3084316A248531003084312F
:100A76006A248531FF3084316A248531003084311F
:100A86006A248531FF3084316A248531003084310F
:100A96006A248531FF3084316A24853100308431FF
:100AA6006A248531843158248531080020003008B5
:100AB6002F042E042D040319612D622D992D01306A
:100AC600FC006E2D0130AD35AE0DAF0DB00D890BAE
:100AD600662D0130FC07B01F712D722D652D300873
:100AE6003402031D802D2F083302031D802D2E088E
:100AF6003202031D802D2D083102031C832D842D07
:100B06008C2D2D08B1022E08B23B2F08B33B3008BE
:100B1600B43B0130B036AF0CAE0CAD0C890B8D2D4D
:100B26000130FC02031D982D992D722D3408B0005A
:100B36003308AF003208AE003108AD000800F300FC
:100B460071084B3E860087010108F40072080319FC
:100B5600AD2DAE2DAF2DF417843151248531E03003
:100B660084316A248531D02D003084316A24853160
:100B7600E12D023084316A248531E12D043084313F
:100B86006A248531E12D063084316A248531E12DD0
:100B9600083084316A248531E12D7308003A03193F
:100BA600B72D013A0319BC2D033A0319C12D013A99
:100BB6000319C62D073A0319CB2DE12D740884318C
:100BC6006A248531003084316A2485318431582481
:100BD6008531080000302000AB000030AA0000304C
:100BE600A9000030A80023082204210420040319C8
:100BF600FD2DFE2D3D2E0130AC000A2E0130A03514
:100C0600A10DA20DA30D890B022E0130AC07A31F67
:100C16000D2E0E2E012E0130A835A90DAA0DAB0DF5
:100C2600890B0F2E23082702031D232E22082602D6
:100C3600031D232E21082502031D232E200824022E
:100C4600031C262E272E302E2008A4022108A53BA1
:100C56002208A63B2308A73B28140130A336A20C82
:100C6600A10CA00C890B312E0130AC02031D3C2EC9
:100C76003D2E0E2E2B08A3002A08A2002908A1004B
:100C86002808A000080000302000CA000030C90073
:100C96000030C8000030C70070303200990084313F
:100CA600862486318431C424863182302000C000F7
:100CB600DD30890B5C2EC00B5C2E0032853122257F
:100CC600863106302000C1001330C000AD30890BDC
:100CD6006A2EC00B6A2EC10B6A2E00328431A12403
:100CE60086312000C60184317724863170082000C1
:100CF600C7077108C83D0030C93DCA3DC83000323B
:100D0600890B822E01302000C60764304602031C80
:100D16008D2E8E2E762E0030A3000030A2000030DD
:100D2600A1006430A0004A08A7004908A6004808A8
:100D3600A5004708A4008531ED258631200023084B
:100D4600CA002208C9002108C8002008C7004808B0
:100D5600B6004708B5004230B7008631DF26863137
:100D660020004208F100F20100308531A2258631CB
:100D760020004308F100F20101308531A2258631B9
:100D860020004C08F100F20102308531A22586319F
:100D960020004408F100F201F20A03308531A22551
:100DA600863120004508F100F20104308531A22584
:100DB6008631742E8031022800302000A3000030D6
:100DC600A2000330A100FF30A000FF30B8000130C0
:100DD600B9000030BA000030BB003508F000360814
:100DE600F100F201F3010030F7000030F6000430A4
:100DF600F5004C30F4008431EF2486317008200071
:100E0600B8077108B93D7208BA3D7308BB3D3B0887
:100E1600A7003A08A6003908A5003808A4008531BD
:100E2600ED25863120002308BF002208BE002108D8
:100E3600BD002008BC000030A3000030A200033033
:100E4600A100E830A0003F08F3003E08F2003D088C
:100E5600F1003C08F0000030F7000030F6000430E6
:100E6600F5005230F4008431EF24863173082000F7
:100E7600A7007208A6007108A5007008A4008531B5
:100E8600ED25863120002308BF002208BE00210878
:100E9600BD002008BC003708860087010030B0007E
:100EA6000030AF000030AE000A30AD000030A300C5
:100EB6000030A2000330A100E830A0003F08A700E0
:100EC6003E08A6003D08A5003C08A4008531ED2596
:100ED600863120002308B4002208B3002108B2009E
:100EE6002008B10085315925863120002D08810062
:100EF600370A860087010030B0000030AF000030AE
:100F0600AE000A30AD000030A3000030A200003071
:100F1600A1006430A0003F08A7003E08A6003D08D7
:100F2600A5003C08A4008531ED2586312000230864
:100F3600B4002208B3002108B2002008B1008531B0
:100F46005925863120002D0881003708023E86008B
:100F560087010030B0000030AF000030AE000A302C
:100F6600AD000030A3000030A2000030A1000A301E
:100F7600A0003F08A7003E08A6003D08A5003C08C3
:100F8600A4008531ED25863120002308B40022080F
:100F9600B3002108B2002008B100853159258631F9
:100FA60020002D0881003708033E860087010030A7
:100FB600B0000030AF000030AE000A30AD003F0890
:100FC600B4003E08B3003D08B2003C08B1008531CC
:100FD6005925863120002D08810008005F308400E5
:100FE600843085004B308600003087000B3084311A
:0A0FF6004B24873120008631462E7F
:020000040001F9
:04000E00EA1FF33FB3
:00000001FF
