:08000000803102288731F12F45
:10088400FE0012001E00FE0B432C0034240016143C
:1008940016184D2C4E2C4A2C080024001615161937
:1008A400542C552C512C08003F3406345B344F34FF
:1008B40066346D347D3407347F346F340034F00093
:1008C4007008240091001418682C692C652C161BE0
:1008D4006C2C6D2C692C08000330890B6F2C0000E4
:1008E40021009D149D18772C782C742C1C08F10081
:1008F4001B08F000080019303D00A1001830A200C8
:1009040011303C00A1001230A00021008E140E15FD
:1009140023008E100E1125008E140E158030240035
:10092400940028309500093092000800220097179F
:100934001708FC3902389700171FA12CA22C9E2CF3
:1009440021000E1624000E1227000E1225000E128E
:1009540023000E1621001D08033950389D00033072
:100964009E041E119E171E088F3940389E001D14C8
:100974000800843148248431E03084316124843196
:10098400213084316124843184314F248431843191
:1009940048248431E03084316124843181308431CD
:1009A4006124843184314F24843184314824843156
:1009B400E030843161248431EF3084316124843126
:1009C40084314F24843108000030FB000030FA00E9
:1009D4000030F9000030F800701CF12CF22CFA2CD5
:1009E4007408F8077508F93D7608FA3D7708FB3D69
:1009F4000130F435F50DF60DF70D890BFB2C0130A4
:100A0400F336F20CF10CF00C890B022D730872040E
:100A140071047004031D0F2D102DEE2C7B08F300C0
:100A24007A08F2007908F1007808F00008008431AF
:100A340048248531E03084316124853100308431AB
:100A440061248531FF308431612485310030843163
:100A540061248531FF308431612485310030843153
:100A640061248531FF308431612485310030843143
:100A740061248531FF308431612485310030843133
:100A840061248531FF308431612485310030843123
:100A94006124853184314F248531080020003008D9
:100AA4002F042E042D040319582D592D902D013097
:100AB400FC00652D0130AD35AE0DAF0DB00D890BC9
:100AC4005D2D0130FC07B01F682D692D5C2D3008A9
:100AD4003402031D772D2F083302031D772D2E08B2
:100AE4003202031D772D2D083102031C7A2D7B2D34
:100AF400832D2D08B1022E08B23B2F08B33B3008DA
:100B0400B43B0130B036AF0CAE0CAD0C890B842D68
:100B14000130FC02031D8F2D902D692D3408B00087
:100B24003308AF003208AE003108AD000800F3000E
:100B340071084B3E860087010108F400720803190E
:100B4400A42DA52DA62DF417843148248531E03039
:100B5400843161248531C72D00308431612485318D
:100B6400D82D0230843161248531D82D043084316C
:100B740061248531D82D0630843161248531D82D06
:100B84000830843161248531D82D7308003A031963
:100B9400AE2D013A0319B32D033A0319B82D013AC6
:100BA4000319BD2D073A0319C22DD82D74088431B9
:100BB40061248531003084316124853184314F24AE
:100BC4008531080000302000AB000030AA0000305E
:100BD400A9000030A80023082204210420040319DA
:100BE400F42DF52D342E0130AC00012E0130A0354A
:100BF400A10DA20DA30D890BF92D0130AC07A31F84
:100C0400042E052EF82D0130A835A90DAA0DAB0D23
:100C1400890B062E23082702031D1A2E22082602FA
:100C2400031D1A2E21082502031D1A2E2008240252
:100C3400031C1D2E1E2E272E2008A4022108A53BCE
:100C44002208A63B2308A73B28140130A336A20C94
:100C5400A10CA00C890B282E0130AC02031D332EED
:100C6400342E052E2B08A3002A08A2002908A1006F
:100C74002808A000080000302000CA000030C90085
:100C84000030C8000030C700703032009900843151
:100C94007D24863182302000C000DD30890B502E47
:100CA400C00B502E00328431BB2486310D3020001D
:100CB400C000FB30890B5C2EC00B5C2E00328531EA
:100CC4001925863106302000C1001330C000AD3034
:100CD400890B6A2EC00B6A2EC10B6A2E0032843136
:100CE400982486312000C60184316E248631700830
:100CF4002000C7077108C83D0030C93DCA3DC8304F
:100D04000032890B822E01302000C607643046026F
:100D1400031C8D2E8E2E762E0030A3000030A200F0
:100D24000030A1006430A0004A08A7004908A600CA
:100D34004808A5004708A4008531E4258631200031
:100D44002308CA002208C9002108C8002008C700D7
:100D54004808B6004708B5004230B7008631DF26A0
:100D6400863120004208F100F201003085319925D6
:100D7400863120004308F100F201013085319925C4
:100D8400863120004C08F100F201023085319925AA
:100D9400863120004408F100F201F20A0330853163
:100DA4009925863120004508F100F201043085318F
:100DB40099258631742E8031022800302000A3004A
:100DC4000030A2000330A100FF30A000FF30B800C3
:100DD4000130B9000030BA000030BB003508F00023
:100DE4003608F100F201F3010030F7000030F6009C
:100DF4000430F5004C30F4008431E6248631700868
:100E04002000B8077108B93D7208BA3D7308BB3DAC
:100E14003B08A7003A08A6003908A5003808A40032
:100E24008531E425863120002308BF002208BE0056
:100E34002108BD002008BC000030A3000030A2003F
:100E44000330A100E830A0003F08F3003E08F200A0
:100E54003D08F1003C08F0000030F7000030F600D7
:100E64000430F5005230F4008431E62486317308EE
:100E74002000A7007208A6007108A5007008A4004D
:100E84008531E425863120002308BF002208BE00F6
:100E94002108BD002008BC00370886008701003007
:100EA400B0000030AF000030AE000A30AD000030BA
:100EB400A3000030A2000330A100E830A0003F08E6
:100EC400A7003E08A6003D08A5003C08A400853103
:100ED400E425863120002308B4002208B300210849
:100EE400B2002008B10085315025863120002D083C
:100EF4008100370A860087010030B0000030AF005F
:100F04000030AE000A30AD000030A3000030A20073
:100F14000030A1006430A0003F08A7003E08A600EE
:100F24003D08A5003C08A4008531E4258631200055
:100F34002308B4002208B3002108B2002008B1003D
:100F440085315025863120002D0881003708023E66
:100F5400860087010030B0000030AF000030AE00E2
:100F64000A30AD000030A3000030A2000030A10020
:100F74000A30A0003F08A7003E08A6003D08A500CF
:100F84003C08A4008531E425863120002308B40000
:100F94002208B3002108B2002008B1008531502591
:100FA400863120002D0881003708033E8600870122
:100FB4000030B0000030AF000030AE000A30AD00A9
:100FC4003F08B4003E08B3003D08B2003C08B1003D
:100FD40085315025863120002D08810008005630C7
:100FE4008400843085004B308600003087000B304D
:0C0FF400843142248731200086313D2EDC
:020000040001F9
:04000E00EA1FF13FB5
:00000001FF
